:100000000C945D000C9485000C9485000C94850084
:100010000C9485000C9485000C9485000C9485004C
:100020000C9485000C9485000C9485000C9485003C
:100030000C9485000C9485000C9485000C9485002C
:100040000C9494030C9485000C9485000C9485000A
:100050000C9485000C9485000C9485000C9485000C
:100060000C9485000C94850000000008000201003B
:100070000003040700000000000000000000000072
:10008000250028002B0000000000240027002A0083
:10009000040404040404040402020202020203032E
:1000A0000303030301020408102040800102040836
:1000B0001020010204081020110511241FBECFEFEB
:1000C000D8E0DEBFCDBF11E0A0E0B1E0ECEBFAE09C
:1000D00002C005900D92AC34B107D9F721E0ACE431
:1000E000B1E001C01D92AD36B207E1F710E0CDE5F9
:1000F000D0E004C02197FE010E945105CC35D10704
:10010000C9F70E94DE030C945C050C94000090E09B
:10011000FC01EC55FF4F2491FC01E057FF4F849107
:10012000882399F090E0880F991FFC01EA57FF4F50
:10013000A591B491FC01E458FF4F859194918FB73C
:10014000F894EC91E22BEC938FBF089580E48093B8
:100150007C0080917A00806480937A0080917A009C
:1001600086FDFCCF809178002091790090E0922B61
:10017000089590E0FC01E859FF4F2491FC01EC55F3
:10018000FF4F3491FC01E057FF4FE491EE2309F457
:100190003CC0222339F1233091F038F42130A9F00A
:1001A000223001F584B58F7D12C0273091F02830C0
:1001B000A1F02430B9F4809180008F7D03C080913C
:1001C00080008F77809380000DC084B58F7784BDC9
:1001D00009C08091B0008F7703C08091B0008F7DFF
:1001E0008093B000F0E0EE0FFF1FE458FF4FA591A1
:1001F000B4919FB7F894611104C08C913095382365
:1002000002C0EC913E2B3C939FBF08953FB7F894FA
:100210008091510190915201A0915301B0915401EC
:1002200026B5A89B05C02F3F19F00196A11DB11D51
:100230003FBFBA2FA92F982F8827820F911DA11D8C
:10024000B11DBC01CD0142E0660F771F881F991FC9
:100250004A95D1F708958F929F92AF92BF92CF9215
:10026000DF92EF92FF926B017C010E9406014B012D
:100270005C01C114D104E104F104F1F00E94060113
:10028000DC01CB0188199909AA09BB09883E934072
:10029000A105B10570F321E0C21AD108E108F10807
:1002A00088EE880E83E0981EA11CB11CC114D104F5
:1002B000E104F10419F7DDCFFF90EF90DF90CF90CC
:1002C000BF90AF909F908F900895CF92DF92EF9262
:1002D000FF920F931F93CF93DF936C017A018B01F1
:1002E000C0E0D0E0CE15DF0581F0D8016D918D0121
:1002F000D601ED91FC910190F081E02DC6010995A8
:10030000892B11F02196EECF7E01C701DF91CF91AD
:100310001F910F91FF90EF90DF90CF900895CF93B2
:10032000DF93EC0160E08E810E94B90061E08E8174
:100330000E94B90060E08E810E94B9008BE891E0D4
:100340000197F1F7DF91CF910895CF92DF92EF926D
:10035000FF920F931F93CF93DF936C017C0187E093
:10036000E80EF11CC0E0D0E0062F10E0B8010C2E22
:1003700002C0759567950A94E2F76170F701819163
:100380007F010E94B9002196C430D10579F7C601DA
:10039000DF91CF911F910F91FF90EF90DF90CF9061
:1003A0000C948F01CF92DF92EF92FF920F931F93E5
:1003B000CF93DF93EC01F62E642F8C810E94B9005D
:1003C0008D818F3F19F060E00E94B9008F850F2D5D
:1003D00010E084FF25C06E0187E0C80ED11CE12C1F
:1003E000F12CB8010E2C02C0759567950A94E2F7BE
:1003F0006170F60181916F010E94B900FFEFEF1A61
:10040000FF0A88E0E816F10461F7CE01DF91CF9191
:100410001F910F91FF90EF90DF90CF900C948F0180
:10042000B80184E0759567958A95E1F7CE010E9441
:10043000A5016F2DCE01DF91CF911F910F91FF90FC
:10044000EF90DF90CF900C94A50140E0682F85E5F8
:1004500091E00C94D20181E00E9425028BE39FE1A0
:100460000197F1F70895CF93DF93823028F09091B0
:10047000640198609093640180936801109269010F
:1004800080E480936A0180E180936B0180E5809332
:100490006C01809159010E94870080915A018F3F21
:1004A00011F00E94870080915B010E948700C5E5E2
:1004B000D1E09E01255531408091640184FD03C047
:1004C00084E090E002C088E090E021962817390788
:1004D00024F48E810E948700ECCF8BE39DE001978E
:1004E000F1F760E0809159010E94B90060E08091CD
:1004F0005B010E94B90080915A018F3F19F060E0C2
:100500000E94B9008091640184FD20C063E085E50C
:1005100091E00E94A501CBE4D6E4CE010197F1F76A
:1005200063E085E591E00E94A5012197F1F763E082
:1005300085E591E00E94A50183E592E00197F1F73E
:1005400062E085E591E00E94A50115C080620E94ED
:1005500025028BE496E40197F1F7809164018062B3
:100560000E94250283E592E00197F1F780916401F2
:1005700080620E9425028091640180620E942502AF
:1005800084E0809365018CE00E9425020E942B028A
:1005900082E08093660186E0DF91CF910C94250282
:1005A000643008F063E090916801691710F06FEF14
:1005B000690FE62FF0E0EB5AFE4F9489890F8068AF
:1005C0000C94250241E00E94D20181E090E0089560
:1005D000089580E090E008959C012A5733402E3121
:1005E000310590F0285D3F4F2832310580F02C59BD
:1005F0003F4F2436310570F0885592408639910579
:1006000060F080E090E0089588E090E0089586E052
:1006100090E0089584E090E0089582E090E00895ED
:10062000009769F0FC0101900020E9F73197AF01D4
:10063000481B590BBC0185E591E00C94650180E0F5
:1006400090E008958F929F92AF92BF92CF92DF92E7
:10065000EF92FF92CF93DF93CDB7DEB7A1970FB69E
:10066000F894DEBF0FBECDBF6C01990FEE08FF08F6
:10067000F7FE2AC041E06DE285E591E00E94D201DB
:1006800022273327A9012C193D094E095F0919A218
:10069000CE0181967C019AE0892E912CA12CB12C5F
:1006A000CA01B901A50194010E942F05605DF701FF
:1006B00062937F01211531054105510589F7CF016D
:1006C0000E94100301961DC0A701960119A2CE0138
:1006D00081967C018AE0882E912CA12CB12CCA0134
:1006E000B901A50194010E942F05605DF701629395
:1006F0007F01211531054105510589F7CF010E9480
:100700001003A1960FB6F894DEBF0FBECDBFDF91E8
:10071000CF91FF90EF90DF90CF90BF90AF909F90E0
:100720008F9008950E9457051F920F920FB60F9257
:1007300011242F933F938F939F93AF93BF938091F7
:100740004D0190914E01A0914F01B0915001309117
:100750004C0123E0230F2D3720F40196A11DB11D7C
:1007600005C026E8230F0296A11DB11D20934C0160
:1007700080934D0190934E01A0934F01B09350018F
:100780008091510190915201A0915301B091540177
:100790000196A11DB11D8093510190935201A09328
:1007A0005301B0935401BF91AF919F918F913F91AD
:1007B0002F910F900FBE0F901F901895789484B5CD
:1007C000826084BD84B5816084BD85B5826085BD4D
:1007D00085B5816085BD80916E00816080936E00DB
:1007E00010928100809181008260809381008091CD
:1007F000810081608093810080918000816080937E
:1008000080008091B10084608093B1008091B0003D
:1008100081608093B00080917A00846080937A0038
:1008200080917A00826080937A0080917A00816062
:1008300080937A0080917A00806880937A00109289
:10084000C10082E00E94330260E082E00E94D00298
:100850008CE091E00E94100361E084E00E94D002ED
:1008600088E191E00E94100368EE73E080E090E080
:100870000E942B010E942B0260E083E00E94D002C4
:1008800081E291E00E94100361E083E00E94D002C7
:100890008BE291E00E94100368EE73E080E090E04C
:1008A0000E942B010E942B0287E00E94870088E0B3
:1008B0000E94870089E00E94870000E010E061E06C
:1008C00087E00E94B90064EF71E080E090E00E9450
:1008D0002B010E94A6000E94EC02EC0160E080E087
:1008E000209769F40E94D00285E391E00E941003F2
:1008F00060E083E00E94D00289E391E013C00E948F
:10090000D00285E391E00E94100360E083E00E9442
:10091000D002CE010E94220360E084E00E94D00257
:100920008FE391E00E94100360E087E00E94B9002D
:1009300061E088E00E94B90064EF71E080E090E03F
:100940000E942B010E94A6000E94EC02EC0160E0D4
:1009500088E0209769F40E94D00283E491E00E942D
:10096000100360E08BE00E94D00289E391E013C0A5
:100970000E94D00283E491E00E94100360E08BE0CB
:100980000E94D002CE010E94220360E08CE00E940F
:10099000D0028FE391E00E94100360E088E00E94A3
:1009A000B90061E089E00E94B90064EF71E080E085
:1009B00090E00E942B010E94A6000E94EC02EC0134
:1009C00061E080E0209769F40E94D00287E491E022
:1009D0000E94100361E083E00E94D00289E391E06D
:1009E00013C00E94D00287E491E00E94100361E0EE
:1009F00083E00E94D002CE010E94220361E084E0E5
:100A00000E94D0028FE391E00E94100360E089E031
:100A10000E94B9000115110509F451CF0E94000090
:100A20004ECFE5E5F1E01382128284E091E09183FC
:100A300080838CE084838FEF85838BE0868385E0E1
:100A4000878384E0808783E0818782E082871386C2
:100A5000148615861686178681E00C943302A1E26F
:100A60001A2EAA1BBB1BFD010DC0AA1FBB1FEE1F28
:100A7000FF1FA217B307E407F50720F0A21BB30B73
:100A8000E40BF50B661F771F881F991F1A9469F7EF
:100A900060957095809590959B01AC01BD01CF014B
:100AA0000895EE0FFF1F0590F491E02D099481E069
:0C0AB00090E0F8940C945C05F894FFCFE3
:100ABC0000000000E2026501E902E8024361626C99
:100ACC0065204661756C74004465746563746F725F
:100ADC000053696D756C61746564004279205275C0
:100AEC006D65736800523A20004E4620202000208D
:0C0AFC004B4D00593A2000473A20000002
:107E0000112484B714BE81FFF0D085E080938100F7
:107E100082E08093C00088E18093C10086E0809377
:107E2000C20080E18093C4008EE0C9D0259A86E02C
:107E300020E33CEF91E0309385002093840096BBD3
:107E4000B09BFECF1D9AA8958150A9F7CC24DD24C4
:107E500088248394B5E0AB2EA1E19A2EF3E0BF2EE7
:107E6000A2D0813461F49FD0082FAFD0023811F036
:107E7000013811F484E001C083E08DD089C08234E0
:107E800011F484E103C0853419F485E0A6D080C0E4
:107E9000853579F488D0E82EFF2485D0082F10E0AE
:107EA000102F00270E291F29000F111F8ED06801E7
:107EB0006FC0863521F484E090D080E0DECF843638
:107EC00009F040C070D06FD0082F6DD080E0C81688
:107ED00080E7D80618F4F601B7BEE895C0E0D1E017
:107EE00062D089930C17E1F7F0E0CF16F0E7DF06D8
:107EF00018F0F601B7BEE89568D007B600FCFDCFD4
:107F0000A601A0E0B1E02C9130E011968C91119780
:107F100090E0982F8827822B932B1296FA010C0160
:107F200087BEE89511244E5F5F4FF1E0A038BF0790
:107F300051F7F601A7BEE89507B600FCFDCF97BE46
:107F4000E89526C08437B1F42ED02DD0F82E2BD052
:107F50003CD0F601EF2C8F010F5F1F4F84911BD097
:107F6000EA94F801C1F70894C11CD11CFA94CF0C13
:107F7000D11C0EC0853739F428D08EE10CD085E9AC
:107F80000AD08FE07ACF813511F488E018D01DD067
:107F900080E101D065CF982F8091C00085FFFCCF94
:107FA0009093C60008958091C00087FFFCCF809118
:107FB000C00084FD01C0A8958091C6000895E0E648
:107FC000F0E098E1908380830895EDDF803219F02E
:107FD00088E0F5DFFFCF84E1DECF1F93182FE3DFCA
:107FE0001150E9F7F2DF1F91089580E0E8DFEE27F6
:047FF000FF270994CA
:027FFE00040479
:0400000300007E007B
:00000001FF
